:020000040800F2
:100000001007002089010008B50C0008B10C000899
:10001000B30C0008A30300081F0D00080000000037
:10002000000000000000000000000000B90C000803
:10003000A503000800000000B70C0008BB0C000876
:10004000A3010008A3010008A3010008A301000800
:10005000A3010008A3010008A3010008A3010008F0
:10006000A3010008A3010008A3010008A3010008E0
:10007000A3010008A3010008A3010008A3010008D0
:10008000A3010008A3010008A3010008A3010008C0
:10009000A3010008A3010008A3010008A3010008B0
:1000A000A3010008A3010008A3010008A3010008A0
:1000B000A3010008A3010008A3010008A301000890
:1000C000A3010008A3010008A3010008A301000880
:1000D000A3010008A3010008A3010008A301000870
:1000E000A3010008A3010008A301000800F002F822
:1000F00000F03AF80AA090E8000C82448344AAF188
:100100000107DA4501D100F02FF8AFF2090EBAE885
:100110000F0013F0010F18BFFB1A43F0010318473B
:10012000A40C0000C40C0000103A24BF78C878C1A9
:10013000FAD8520724BF30C830C144BF04680C60ED
:10014000704700000023002400250026103A28BF35
:1001500078C1FBD8520728BF30C148BF0B60704739
:100160001FB51FBD10B510BD00F0E2F81146FFF736
:10017000F7FF00F0E5FD00F000F903B4FFF7F2FF30
:1001800003BC00F007F90000094880470948004710
:10019000FEE7FEE7FEE7FEE7FEE7FEE7FEE7FEE737
:1001A000FEE7FEE704480549054A064B7047000094
:1001B0001D0D0008ED0000081001002010070020B0
:1001C0001003002010030020B2F120030AD5C2F171
:1001D000200320FA02F001FA03F321FA02F140EAC7
:1001E0000300704721FA03F04FF000017047032A23
:1001F00040F2308010F0030C00F0158011F8013B44
:10020000BCF1020F624498BF11F801CB00F8013B2A
:1002100038BF11F8013BA2F1040298BF00F801CBEE
:1002200038BF00F8013B11F0030300F04F80083A9B
:10023000C0F0088051F8043B083A51F804CBA0E81C
:100240000810F5E7121D5CBF51F8043B40F8043B71
:10025000AFF30080D20724BF11F8013B11F801CBA6
:1002600048BF11F8012B24BF00F8013B00F801CB77
:1002700048BF00F8012B70474FF0000200B513464D
:1002800094469646203922BFA0E80C50A0E80C50B6
:10029000B1F12001BFF4F7AF090728BFA0E80C5067
:1002A00048BF0CC05DF804EB890028BF40F8042B60
:1002B00008BF704748BF20F8022B11F0804F18BFCD
:1002C00000F8012B704770477047704710B5203A0F
:1002D000C0F00B80B1E81850203AA0E81850B1E8FF
:1002E0001850A0E81850BFF4F5AF5FEA027C24BFB5
:1002F000B1E81850A0E8185044BF18C918C0BDE8AC
:1003000010405FEA827C24BF51F8043B40F8043B74
:1003100008BF7047D20728BF31F8023B48BF11F829
:10032000012B28BF20F8023B48BF00F8012B704783
:10033000754600F02BF8AE4605006946534620F09E
:100340000700854618B020B5FFF72CFFBDE8204018
:100350004FF000064FF000074FF000084FF0000B81
:1003600021F00701AC46ACE8C009ACE8C009ACE834
:10037000C009ACE8C0098D46704710B50446AFF31C
:1003800000802046BDE81040FFF7F7BE00487047E8
:10039000B000002001491820ABBEFEE72600020095
:1003A0007047FEE77047000006490020C861064814
:1003B000016941F004010161016941F040010161FD
:1003C000704700009000002000200240064A0021F3
:1003D000D16106490A6942F002020A61486108696E
:1003E00040F040000861704790000020002002406B
:1003F000044B0022DA61044A136943F001031361DC
:100400000180704790000020002002401448002224
:10041000C168CB06134904D5CA6942F00202CA6119
:100420001022C3685B0705D5CB6943F00103CB619C
:1004300042F00402C369DB0707D0CB6943F0040331
:10044000CB61C16921F00101C161A2F5807101395F
:1004500001D0C2607047C16921F00101C1617047DC
:10046000002002409000002070B5054600F020F901
:100470000646114C09E0681C07D025B100F018F9B8
:10048000801BA84201D9032070BDE068C007F2D1EB
:10049000E068800601D52020E060E068C00605D451
:1004A000E069C00702D1E068400703D5FFF7AEFF5F
:1004B000012070BD002070BD0020024010B586B044
:1004C000044600F0E1F80120CDE90240019000204F
:1004D000009004A9684600F039F800F08BF806B0E7
:1004E00010BD10B50023521C05E030F813405B1C12
:1004F00021F8024B9BB2B3EB520FF6D310BD3D2255
:10050000FFF7EFBF2DE9F04116460D46074600F014
:10051000BBF80024761C09E02A8807EB440100237D
:10052000012000F071F8641CA4B2AD1CB4EB560FAE
:10053000F2D3BDE8F04100F05DB80FB43D2210B534
:1005400003A9FFF7DFFF10BC5DF814FB2DE9F047AE
:10055000054626480F460126017E01290FD00121BC
:10056000814601762868DFF888804CF250340228F2
:1005700008D0A2462046FFF777FFA8B131E002205D
:10058000BDE8F0872046FFF76FFF08BB0120FFF7AB
:100590000BFF2046FFF768FFD8F81010064621F041
:1005A0000401C8F810101CE04FF0FF303860AC6850
:1005B00011E02046FFF70AFF5046FFF755FFD8F835
:1005C0001010060021F00201C8F8101001D03C60A4
:1005D00007E004F58064D5E9020100EB8120A04228
:1005E000E7D8002189F818103046C9E790000020AC
:1005F000002002400348016941F0800101610020B0
:1006000070470000002002402DE9F05F07461C48BB
:1006100088460024017E15461E46012909D0012185
:10062000814601764CF2503A5046FFF71DFF18B153
:1006300022E00220BDE8F09F012F02D0022F00D05F
:100640000427D346DFF83CA0220128463146FFF7B5
:10065000BBFD81B208EB4400FFF7CAFE5846FFF726
:1006600003FFDAF8102022F00102CAF8102018B9AE
:10067000641CE4B2BC42E7D3002289F81820D9E711
:100680009000002000200240064900200A6912065E
:1006900007D5054A4A60054A4A600969090600D536
:1006A000012070470020024023016745AB89EFCD50
:1006B00001488068704700004000002002488168BF
:1006C000027811448160704740000020074810B54F
:1006D000016841F010010160032000F067F80F206D
:1006E00000F006F800F024F8002010BD00200240C1
:1006F00070B50D4D04464FF47A712878B1FBF0F0D7
:100700000A490968B1FBF0F000F0BEFA48B9102CB4
:1007100007D200222146501E00F028F800206C600D
:1007200070BD012070BD0000400000204C00002082
:100730000C4808B5816941F001018161816901F0CE
:1007400001010091C16941F08051C161C06900F0AF
:10075000805000900448416821F0E06141F0007150
:10076000416008BD0010024000000140F0B40E4B93
:100770001B680C46C3F30223C3F10705042D00D9FF
:100780000425191D072901D2002300E0DB1E0126E4
:1007900006FA05F1491E214099409E40761E1640FA
:1007A0003143F0BC00F0BCBA0CED00E0064900F0AB
:1007B000070208684FF6FF03184040EA0220034A88
:1007C00010430860704700000CED00E00000FA05DF
:1007D0002DE9F0470F46050061D0434E306800F028
:1007E0000700B84209D2306820F007003843306073
:1007F000306800F00700B84251D128683B4C8107AF
:1008000012D5400703D5606840F4E0606060287846
:10081000000703D5606840F4605060606068A968B4
:1008200020F0F000084360602878C00728D068688E
:10083000012810D02168022810D0890700292EDA5B
:10084000616821F0030101436160FFF731FF8046D9
:1008500041F288390DE021688903EFE78901EDE76E
:10086000FFF726FFA0EB0801494502D90320BDE8A8
:10087000F0876068696800F00C00B0EB810FEFD181
:10088000306800F00700B8420BD9306820F007004C
:1008900038433060306800F00700B84201D00120D2
:1008A000E5E72878400705D56068E96820F4E0604E
:1008B000084360602878000706D56068296920F43D
:1008C000605040EAC100606000F018F86168084AB2
:1008D000C1F30311515CC84006490860064800682E
:1008E000FFF706FF0020C2E7002002400010024090
:1008F000B40D00084C0000204400002012A185B077
:100900000FC98DE80F0014A0144A006804905168C4
:10091000134801F00C03042B10D0082B0ED1C1F3A7
:100920008343C9031DF803000AD5516804AAC1F323
:100930004041515C0A4A5043B0FBF1F005B07047AA
:1009400008494843FAE700000203040506070809BE
:100950000A0B0C0D0E0F10100102000000100240D7
:1009600000127A0000093D002DE9F84F040070D014
:100970002078C04DC00749D06868C0F381000128C5
:1009800007D06868C0F38100022809D16868C003F5
:1009900006D52868800339D560680028E7D035E09F
:1009A0006068B0F5803F0BD010B1B0F5A02F11D02A
:1009B000286820F480302860286820F4802002E035
:1009C000286840F480302860606890B1FFF770FEBE
:1009D00006460AE0286840F480202860F0E700BF5F
:1009E000FFF766FE801B642873D828688003F7D55C
:1009F0000CE0FFF75DFE064605E000BFFFF758FE7E
:100A0000801B6428F0D828688003F7D420789A4E99
:100A100080074FF001094FF0000839D5686810F0E1
:100A20000C0F07D06868C0F38100022809D16868FC
:100A3000C00306D42868800714D52069012808D18E
:100A400010E02069B0B1C6F80090FFF731FE07460C
:100A500005E00AE1FFF72CFEC01B0228C4D8286875
:100A60008007F7D52868616920F0F80040EAC100E6
:100A700028600DE0C6F80080FFF71AFE074604E084
:100A8000FFF716FEC01B022823D828688007F7D47A
:100A9000207800072CD57948A169D9B1C0F8009019
:100AA000FFF706FE074604E0FFF702FEC01B022820
:100AB0000FD8686A8007F7D571484FF4FA5100687B
:100AC000B0FBF1F0009000BF0098411E0091FAD2F7
:100AD0000EE080E0C0F80080FFF7EAFD074604E082
:100AE000FFF7E6FDC01B022875D8686A8007F7D4B7
:100AF0002078400760D5E8690027C00008D4E8697D
:100B000040F08050E861E869012700F080500090D3
:100B10005C480168C90513D40168834641F48071BB
:100B20000160FFF7C5FD824606E000BFFFF7C0FD8C
:100B3000A0EB0A0064284ED8DBF80000C005F5D50C
:100B4000E06801280AD008B1052813D0286A20F0EF
:100B500001002862286A20F0040002E0286A40F0C0
:100B600001002862E06841F2883B98B1FFF7A0FDE0
:100B700082460BE0286A40F004002862EEE700BFDE
:100B8000FFF796FDA0EB0A0159455AD8286A80075D
:100B9000F6D50CE0FFF78CFD824605E0FFF788FDF7
:100BA000A0EB0A0159454CD8286A8007F6D41FB13A
:100BB000E86920F08050E861E06988B36968C1F3B2
:100BC0008101022944D00228C6F8608004D0FFF7D2
:100BD0006FFD044638E034E0FFF76AFD074604E0A5
:100BE000FFF766FDC01B02282BD828688001F7D4C8
:100BF000206AB0F5803F05D16868A16820F4003014
:100C000008436860D4E908010843696821F4741155
:100C100008436860C6F86090FFF74AFD044606E0A6
:100C200025E000BFFFF744FD001B022809D8286813
:100C30008001F7D51BE000BFFFF73AFD001B02283B
:100C400002D90320BDE8F88F28688001F4D40EE0B3
:100C50000128F7D06868226A00F48031914204D1FB
:100C6000616A00F47010884201D00120EAE7002098
:100C7000E8E70000001002400000424280044242C7
:100C80004C0000200070004010B5401EB0F1807F85
:100C900001D3012010BD4FF0E02460610F216017E7
:100CA00000F03EF80020A06107202061002010BD68
:100CB000FEE7FEE7FEE770477047FFF7FFBC30B581
:100CC0008FB028216846FFF7D7FA14210AA8FFF74A
:100CD000D3FA01210804CDE9001000240294022572
:100CE0000491CDE907504FF4E01009906846FFF7F2
:100CF0003BFE08B172B6FEE70F20CDE90A054FF4BE
:100D00008060CDE90C4002210AA80E94FFF760FD37
:100D1000002801D072B6FEE70FB030BD7047FEE785
:100D20000907090E002804DB00F1E02080F8001418
:100D3000704700F00F0000F1E02080F8141D7047AC
:100D40009EB0FFF7C3FCFFF7BAFF1648816941F078
:100D500020018161816901F020010091816941F0E8
:100D6000040181618069104C00F00400009020466D
:100D7000FFF7A4FB31220D496846FFF738FA0B490B
:100D80003D220C390DA8FFF732FA0DF1340C204644
:100D90009CE80E00FFF7D1FB05492046FFF7AFFBAB
:100DA000FEE700000010024000FC00080C000020DC
:100DB00050000020000000000000000001020304B9
:100DC00006070809E40D000800000020500000009C
:100DD00028010008340E000850000020C006000062
:100DE000440100080A6C61707472696E680000004A
:100DF00000000000000000000000000000000000F3
:100E000000000031323334353637383931300000A4
:100E100000000000000000000000000000000000D2
:100E200000000000010000001000000000000000B1
:040E30000024F400A6
:04000005080000ED02
:00000001FF
